:020000040800F2
:1000000078060020A1010008A51C0008791B000843
:10001000A11C00081D1400080926000800000000AB
:10002000000000000000000000000000E5210008C2
:10003000211600080000000025210008D122000838
:10004000BB010008BB010008BB010008BB010008A0
:10005000BB010008BB010008191700084D17000874
:10006000BB010008BB01000881170008BB010008A4
:10007000BB010008BB010008BB010008BB01000870
:10008000BB010008BB010008BB010008BB01000860
:10009000BB010008BB010008BB010008B517000840
:1000A000BB010008BB010008BB010008BB01000840
:1000B00035230008BB01000800000000BB01000858
:1000C000BB0100080000000000000000BB010008A8
:1000D00000000000BB010008BB0100080000000098
:1000E000BB010008BB010008BB01000800F002F8DA
:1000F00000F047F80AA090E8000C82448344AAF17B
:100100000107DA4501D100F03CF8AFF2090EBAE878
:100110000F0013F0010F18BFFB1A43F0010318473B
:100120005442000074420000103A24BF78C878C1DD
:10013000FAD8520724BF30C830C144BF04680C60ED
:10014000704700000023002400250026103A28BF35
:1001500078C1FBD8520728BF30C148BF0B60704739
:10016000662903F0C285002070471FB500F004FB2C
:1001700004000020002102F073FEE0601FBD10B5F6
:1001800010BD00F0F9FB1146FFF7EFFF02F084FC11
:1001900000F017FC03B4FFF7F2FF03BC00F05AFCB9
:1001A0000948804709480047FEE7FEE7FEE7FEE70B
:1001B000FEE7FEE7FEE7FEE7FEE7FEE70448054947
:1001C000054A064B70470000D5220008ED000008E4
:1001D00078000020780600207802002078020020B5
:1001E0000FB41CB5074B06AA7B44694600900598DE
:1001F00000F0A9FA0020694600F0B8FA1CBC5DF8CE
:1002000014FB0000810500002DE9F0474FF0000AC3
:1002100089460446C0F820A02046E16888470028A7
:1002200076D0252806D0D4E901219047206A401CC9
:100230002062F1E7E168204600258847C4F81CA049
:1002400006460027C4F818A02A2E09D0304602F02E
:10025000F1F938B304EB8708303EC8F8186019E0AC
:1002600059F8041B204604EB87029161E168884736
:10027000012F064618D1E069002820DA25F0200574
:100280001DE0D8F8180000EB800006EB4000303885
:10029000C8F818002046E1688847064602F0CAF907
:1002A0000028EED1012F0AD02E2E08D12046E16879
:1002B00088477F1C0646022F45F02005C4DBA06955
:1002C000002803DA404245F00105A061E80701D0AB
:1002D00025F01005B6B1A6F14100192802D8203644
:1002E00045F400654A463146204625604D46FFF7F5
:1002F00037FF58B1012806D0ED1D25F0070000F1A9
:10030000080989E704E005F1040985E730468AE732
:10031000206ABDE8F08770477047704770472DE945
:10032000FF4F0C461E464FF0FF378BB0D2E900015D
:10033000DDF860800A908A46C1F30A5505B93D464A
:10034000002108464FF00000BAF1000F00F4400011
:1003500005DA00EB80004FF4400101EA50004FEA5B
:100360009059B9F1010F00DDB9460A9850EA4A00E8
:100370000ED044F61050A5F2FF3545432F14B8F1C6
:10038000000F1ED07542291E1EDDC9F100021CE0BF
:10039000B8F1010F4FF0000001D0302103E0F2432B
:1003A00005E02154401CB042FBDB30460022002116
:1003B00021540B99C1F80880C1E900200FB0BDE8B5
:1003C000F08FBD1B6D1CDEE74A4600DA694206A8C5
:1003D00000F05CFA06AB93E8070003AB83E8070084
:1003E00050460A9900F03DFB8DE80700A0F500504B
:1003F0001F3800900398002D0ADD42F21F014A4683
:100400000844002303A90390684600F0A6FD09E014
:10041000A0F500504A461F38002303A90390684600
:1004200000F0B0FD8DE807000004000C03D04FF091
:10043000FF30410800E01046B8F1000F03D0002261
:10044000009215461EE0751E05D400F099F9303271
:1004500062556D1EF9D5B3460122084302D0002231
:100460007F1C04E02078302801D100227F1E002A62
:10047000099784D01DE0112D07DA00F081F93032A0
:1004800062556D1C50EA0102F5D1084302D0009874
:10049000C8B10EE00021681E05E0235C625C635475
:1004A0002254401E491C8142F7DBAB46A81B401E6C
:1004B0000990002004F80B000B98099AC0F80880F6
:1004C000C0E9002B7AE711264FF0000857E72DE925
:1004D000F04F88460446D21D22F0070191B0D1E9C1
:1004E0000001CDE90A0102F091F802460B98C00F15
:1004F00001D02D2007E02068810701D52B2002E0E4
:10050000202101EAC000032A099001D0072A05DB57
:1005100003464146204600F079F90BE12078800639
:1005200001D5E06900E00620B8F1650F814606D0EC
:10053000B8F1660F18D0B8F1670F70D131E0002024
:10054000B9F1110F009001DB112301E009F1010362
:100550000AAA01A90CA8FFF7E2FEDDE90C7000264B
:1005600009F10105834647E001204B4600904FF01A
:1005700000470AAA01A90CA8FFF7D1FEDDE90DB0DA
:100580000C995D46002610B909F101000D18B9EB70
:10059000050003D4C0F1FF3609F10105A5EB090000
:1005A0002BE0B9F1010F01DA4FF001090020B9F198
:1005B000110F0090484601DD112300E003460AAA0E
:1005C00001A90CA8FFF7ABFEDDE90C704D46002633
:1005D0008346207800070AD4AB4500DA5D4601A8BF
:1005E000012D04DD411911F8011C302907D04F45B8
:1005F00002DA17F1040F04DA012082460FE06D1EC3
:10060000EEE7002F02DCED1B3E4403E0781CA8421D
:1006100000DD7D1CB81B00F1010A4FF00047207877
:10062000000703D4AA4501DB4FF0FF3A0021B7F1E0
:10063000004F0DF143088DF8431024D002202B23E6
:10064000002F01DA7F422D230A21021EA0F10100B2
:1006500000DC5FB197FBF1FC97FBF1F201FB1C7C26
:1006600017460CF1300C08F801CDEEE7A8F10100B7
:1006700003702188090501D5452100E06521A0F11D
:10068000010800F8011C09980FA9A1EB0807FF1D3C
:1006900000B10120411901EBEA70A1693844081A40
:1006A000401EA0612078C00602D42046AFF300802F
:1006B000099828B1D4E901219047206A401C2062A2
:1006C0002078C00622D52046AFF300801EE0002E21
:1006D00004DBB34502DD01A8805D00E03020D4E9F1
:1006E00001219047206A401C2062761CAAF101007B
:1006F0005FEA000A0AD100F03FF8C0680168405C78
:10070000D4E901219047206A401C2062281EA5F1EF
:100710000105DCDC07E0D4E9012118F8010B904762
:10072000206A401C2062381EA7F10107F3DC204636
:10073000AFF30080032011B041E6000001694A1CBC
:1007400002610878704700B58FB0CDE90131002112
:10075000059105497944CDE9031011466846FFF734
:1007600053FD0FB000BD0000E5FFFFFF0A6802F86F
:10077000010B0A60704700000048704734000020F9
:1007800030B5B0F10A024FEA900E71F100034EEA63
:10079000817EB0EB0E0061EB91014FEA101E4EEA34
:1007A000017E10EB0E0041EB11114FEA102E4EEAC4
:1007B000016E10EB0E0041EB11214FEA104E4EEA94
:1007C000014E10EB0E0041EB1141401841F10001C8
:1007D0004FEAD00040EA41704FEAD10110EB8005AA
:1007E0004FEA810444EA907444EB01046D1944EB30
:1007F0000404521BA3414FF0000348BF0A3200D546
:1008000030BD401C41F1000130BD00002DE9F04138
:100810001F46044603260168072A01F4006004DB32
:1008200008B116A505E016A503E008B115A500E07E
:1008300015A521F010002060A069C01EA0610FB1B5
:10084000401EA0612046AFF300804FB1D4E90121E2
:1008500038469047206A401C2062C01C206206E097
:10086000206AFAE7D4E9012115F8010B9047761EBA
:10087000F8D22046AFF30080BDE8F0814E414E0033
:100880006E616E00494E4600696E66002DE9F047C4
:10089000814616468AB0354878440DC88DE80D006B
:1008A00032487844801C03AC0DC884E80D0041F642
:1008B0009B300844372190FBF1F290FBF1F5A5F154
:1008C000800501FB12041B3C02D56442012000E0BC
:1008D0000020DFF898A080460027FA44AAF1BE0A5B
:1008E0000EE0E0070AD03246684607EB47010123D5
:1008F0000AEB810100F046FB8DE8070064107F1CC5
:10090000002CEED1194F7F44AE3F19E0E80715D017
:1009100007EB04100DF1180A90E80E008AE80E00AB
:10092000C068F04201D1981908903246012306A907
:1009300003A800F027FB03AB83E807006D10641CDD
:10094000002DE3D14FF0010332466946B8F1000FA4
:1009500003A802D000F001FB01E000F013FBC9E99D
:100960000001C9F808200AB0BDE8F087C03A0000CD
:1009700000487047140000207546FFF7F9FFAE46A7
:1009800005006946534620F00700854618B020B59B
:10099000FFF714FCBDE820404FF000064FF00007C1
:1009A0004FF000084FF0000B21F00701AC46ACE817
:1009B000C009ACE8C009ACE8C009ACE8C0098D4684
:1009C000704710B50446AFF300802046BDE81040E4
:1009D000FFF7E0BB4FF0013C50F8042B51F8043B0B
:1009E0009A4221D1A2EB0C03934313EACC1317D103
:1009F00050F8042B51F8043B9A4215D1A2EB0C039A
:100A0000934313EACC130BD150F8042B51F8043B59
:100A10009A4209D1A2EB0C03934313EACC13DBD027
:100A20004FF00000704700BFD01A01BAB1FA81F14F
:100A300001F0180122FA01F0CB40C1F12001DBB234
:100A4000C0B2C01A2CFA01F3D11A914311EAC311B2
:100A5000E6D1704701491820ABBEFEE72600020030
:100A600070475FEA400C08BF91F0000F4FEA8C23FB
:100A70004FEAC12243EA51514FEA1C5018BF00F51A
:100A8000F0404FEA300018BF41F000415FEA6C5C73
:100A900000F02980BCF1FF3F08BF40F08040704764
:100AA000130C06BF12044FF0100C4FF0000C130E85
:100AB00004BF12020CF1080C130F04BF12010CF159
:100AC000040C930F04BF92000CF1020CD30F04BF6F
:100AD00052000CF1010C11464FF00002A0F11F0072
:100AE000A0EB0C00704711F0004F08BF704731F0C9
:100AF00000413FF4D5AF0B0C06BF09044FF0100CBA
:100B00004FF0000C0B0E04BF09020CF1080C0B0F88
:100B100004BF09010CF1040C8B0F04BF89000CF118
:100B2000020CCB0F04BF49000CF1010CCCF12003E7
:100B3000A0EB0C0022FA03F302FA0CF241EA0301E3
:100B400000F10100704720F07F4C80EA030023F0A1
:100B50007F47ACEB070303F57C5300F0004003F143
:100B6000FF032DE980494FEA154B09B44FEA1443BE
:100B700025EA0B4E24EA03480FF2042606EB13275E
:100B800049083E785FEA320203FB0667C7F50007B3
:100B900007FB06F64FEA54374FEAD64606F102063F
:100BA00007FB066CCCF1005C4FEA1C472CEA074CB3
:100BB00007FB06F40CFB06F504EB15464FEA961608
:100BC00034BF00204FF000404FEAD13706FB07FC4E
:100BD0004FEA1C4C0CFB0BF7D21B03FB0CF761EB31
:100BE00007010CFB0EF7B0EB074072EB17420CFB52
:100BF00008F734BFA2EB0742B2EB074261EB1741A3
:100C00004FEA0C444FEA910706FB07FC4FEA1C4CE5
:100C10000CFB0BF7B0EBC74072EB573203FB0CF742
:100C200034BFA2EBC742B2EBC74261EB57310CFBBA
:100C30000EF7B0EBC70072EB57720CFB08F734BF2E
:100C4000A2EBC702B2EBC70261EB5771039F4FEAF9
:100C5000816141EA921104EBCC044FEAD1374FEAAB
:100C6000826206FB07FC42EA90124FEA80604FEA7C
:100C70001C4C0CFB0BF7D21B03FB0CF761EB0701C1
:100C80000CFB0EF7B0EB074072EB17420CFB08F7BA
:100C900034BFA2EB0742B2EB074261EB17414FEAC8
:100CA0008C554FEA910704EB9C2406FB07FC4FEAA6
:100CB0001C4C0CFB0BF7B0EBC74072EB573203FB3D
:100CC0000CF734BFA2EBC742B2EBC74261EB57311E
:100CD0000CFB0EF7B0EBC70072EB57720CFB08F77A
:100CE00034BFA2EBC702B2EBC70261EB577115EB41
:100CF0004C254FEA816141EA92114FEA82624FEA44
:100D0000D13742EA901206FB07FC44F100044FEA97
:100D100080604FEA1C4C0CFB0BF7D21B03FB0CF75B
:100D200061EB07010CFB0EF7B0EB074072EB1742CB
:100D30000CFB08F734BFA2EB0742B2EB074261EBB2
:100D4000174115EB1C154FEA813141EA92414FEAF8
:100D5000823242EA90424FEA80304FEA0C7644F108
:100D6000000448EA03434EEA0B484FF0000EB2EB92
:100D7000080C71EB030724BF624639464EEB0E0E9A
:100D80004FF0000B0018524149414BEB0B0BB2EBFB
:100D9000080C71EB03077BF1000B24BF6246394658
:100DA0004EEB0E0E4FF0000B0018524149414BEB39
:100DB0000B0BB2EB080C71EB03077BF1000B24BFAC
:100DC000624639464EEB0E0E51EA020718BF46F056
:100DD000010616EB0E7655F1000254F1000103D521
:100DE000BDE88901BDE80088BDE88901BDE800488B
:100DF000B619524141EB0101A3F101037047808014
:100E00007F7E7D7C7B7A7978777676757473727164
:100E100071706F6E6E6D6C6C6B6A6A69686867661C
:100E200066656464636362616160605F5F5E5E5DAE
:100E30005D5C5C5B5B5A5A59595858575756565522
:100E400055555454535352525251515050504F4F84
:100E50004F4E4E4D4D4D4C4C4C4B4B4B4A4A4A49D4
:100E60004949484848474747474646464545454417
:100E70004444444343434342424242414141002BA4
:100E80009C4630D477002BD01CB54FEA370703B40B
:100E90004FF010004FF01001BAF1000F06D0BCF176
:100EA000000FDCBF40F0080040F008014FF00000E8
:100EB0000FBCBDE810400BF1010BBBF1010F08BFE7
:100EC0005FEA170722BF12F1010211F101014FF091
:100ED000004143F1000300F0004043EA0000704786
:100EE000F9D35708D0E746EA064613F1400F4FEA18
:100EF00016461FDD13F1200FDFBF16430A460021FF
:100F000020335B42BED0C3F1200746EA064602FA10
:100F100007F74FEA164646EA0706C3F1200722FA0A
:100F200003F201FA07F721FA03F14FF0000342EA56
:100F30000702A7E746EA020646EA06464FEA1646D1
:100F400046EA0106BCBF46EA0646360C4FF00003EF
:100F50004FF000024FF0000194E72DE9804C9A46D3
:100F6000934670B491E8380007C831EA400C48BF96
:100F700034EA430C03D5FFF7E6FDFFF780FFF0BC32
:100F8000BDE8008C2DE9804C9A46934670B491E8F8
:100F9000380007C810F0804F08BF13F0804F03D10E
:100FA00000F005F8FFF76BFFF0BCBDE8008C20F007
:100FB0007F4780EA030023F07F4C07EB0C03A3F587
:100FC0007C5300F00040A3F1FE0392F0000F00F00C
:100FD000B38095F0000F00F077802DE901494FEACA
:100FE00011404FEA144621EA004800FB06FC24EABF
:100FF000064708FB06F607FB08F800FB07F718EBA7
:1010000006484CEB164C4FEA124B18EB07484FEAD8
:1010100015464CEB174022EA0B4E0BFB06FC25EA6B
:1010200006470EFB06F607FB0EFE0BFB07F71EEB53
:10103000064E4CEB164C4FF000061EEB074E4CEBE9
:10104000174B18EB0B0840F1000018EB0E0B58EB98
:10105000000840F100008F1A4FF000013CBFC94367
:10106000661B14BFB5EB040C00213CBFC943F61B43
:101070004FEA17444EEA8E0E27EA04454FEA1C4712
:1010800004FB07622CEA074C05FB07F70CFB05F68F
:1010900004FB0CFC16EB074642EB174216EB0C4622
:1010A00042EB1C421BEB060658EB0202414146EAAA
:1010B0009E0601D5BDE80189B619524141EB0101F7
:1010C000A3F10103BDE801894FEA14454FEA114736
:1010D00024EA054621EA074C05FB07F406FB07F75F
:1010E0000CFB06F105FB0CFC11EB074144EB17442C
:1010F0004FEA124711EB0C4144EB1C4422EA074C27
:1011000005FB07F206FB07F70CFB06F605FB0CFCDC
:1011100016EB074642EB174216EB0C4642EB1C451A
:101120006A1854F1000148BF7047B619524141EBAB
:101130000101A3F10103704795F0000F37D04FEA8A
:1011400011424FEA144721EA024624EA074C02FB07
:1011500007F106FB07F70CFB06F402FB0CFC14EB93
:10116000074441EB17414FEA154714EB0C4441EBA0
:101170001C4125EA074C02FB07F506FB07F70CFBB1
:1011800006F602FB0CFC16EB074645EB174516EB83
:101190000C4645EB1C42121951F1000148BF704743
:1011A000B619524141EB0101A3F1010370474FEA27
:1011B00014454FEA114724EA054621EA074C05FB8E
:1011C00007F106FB07F70CFB06F24FF0000605FBE4
:1011D0000CFC12EB074241EB174112EB0C4251EBB6
:1011E0001C4148BF7047921841EB0101A3F1010374
:1011F000704721B1826842F00102826003E0826898
:1012000022F0010282607047014600208A6802F0E5
:1012100004020AB1012000E0002070470146C86CBA
:1012200080B270470246002013680B400BB10120CA
:1012300000E000207047014600208A6802F00802A2
:101240000AB1012000E000207047000030B50246DE
:101250000020002350680F4C20400D790C6844EAB0
:1012600005242043506090680B4C2040D1E9025483
:101270002C434D7944EA450420439060D06A20F421
:1012800070000C7C641EE4B2234340EA0350D06239
:1012900030BD0000FFFEF0FFFDF7F1FFF0B50446A2
:1012A0000D4600200021092D11DDE068A5F10A0698
:1012B00006EB4607072606FA07F18843A5F10A065A
:1012C00006EB460603FA06F10843E0600CE02069ED
:1012D00005EB4507072606FA07F1884305EB4506A7
:1012E00003FA06F108432061072A0FDA606B561EE5
:1012F00006EB86071F2606FA07F18843561E06EB03
:10130000860605FA06F10843606322E00D2A0FDA2B
:10131000206BD61F06EB86071F2606FA07F18843C7
:10132000D61F06EB860605FA06F10843206310E097
:10133000E06AA2F10D0606EB86071F2606FA07F102
:101340008843A2F10D0606EB860605FA06F108436E
:10135000E062F0BD816841F008018160704721B111
:10136000826842F4A002826003E0826822F4A00254
:1013700082607047816841F004018160704700001D
:1013800000B587B00121042000F0EAFE0121082009
:1013900000F0E6FE0121480200F0E2FE4FF40040BA
:1013A00000F0C2FE00208DF81B008820ADF8180068
:1013B00003208DF81A0006A9164800F095FA0020BF
:1013C00001908DF808008DF809004FF4602003901B
:1013D0000020049001208DF8140001A90E48FFF7A9
:1013E00035FF01210C48FFF704FF0B48FFF7B2FF60
:1013F00000BF0948FFF71FFF0128FAD00648FFF792
:10140000B9FF00BF0448FFF7FFFE0128FAD007B07C
:1014100000BD0000000801400024014000BFFEE7BD
:1014200008B50121042000F09BFE10208DF8030078
:10143000ADF8000003208DF802006946034800F073
:1014400053FA1021014800F0EEFA08BD00080140EF
:1014500010B51021014800F0E6FA10BD0008014067
:1014600010B51021014800F0DCFA10BD0008014061
:1014700010B500214FF0804000F076FF10BD000055
:1014800008B50121042000F06BFE4FF40060ADF8B8
:10149000000004208DF803006946024800F024FA99
:1014A00008BD00000008014008B50121042000F03B
:1014B00057FE4FF40060ADF8000010208DF80300D7
:1014C00003208DF802006946014800F00DFA08BDBE
:1014D0000008014070B50025FFF7E6FF4FF40061FA
:1014E0002D4800F09EFA122000F09BF84FF40061A6
:1014F000294800F098FA282000F09FF8FFF7C0FF75
:10150000142000F09AF84FF40061234800F077FAB5
:1015100000282BD104E0012000F08FF8681CC5B230
:101520004FF400611C4800F06AFA08B9642DF2DB40
:10153000002504E0012000F080F8681CC5B24FF4DB
:101540000061154800F05BFA012801D1642DF1DB40
:101550000025002405E000F025F810490855601C1E
:10156000C4B2052CF7DB322000F067F80B48007896
:101570000A49497808440949897808440749C978DB
:10158000084407490870054800790978884201D164
:10159000012070BD0020FCE7000801400000002091
:1015A000050000202DE9F0410025002400262FE051
:1015B00004E0012000F041F8601CC4B24FF4006167
:1015C000164800F01CFA08B9642CF2DB00241E2037
:1015D00000F033F800274FF40061104800F00FFAD4
:1015E000012800D1012704E0012000F026F8601C4A
:1015F000C4B24FF40061094800F001FA012801D19A
:10160000642CF1DB00246806050E3D43701CC6B255
:10161000082ECDDB2846BDE8F0810000000801401F
:10162000704700B5034603E04FF47A7000F005F808
:10163000181EA3F10103F7D100BD00EBC001C900E2
:101640004FF0E0225161002191610521116100BF3D
:101650004FF0E021096901F480310029F8D004211C
:101660004FF0E022116170470349B1F900000021F9
:10167000014A1180704700000E0000201FB50121B3
:10168000082000F06DFD0121084600F069FD4820AA
:101690008DF80F000320ADF80C008DF80E0003A9A3
:1016A0001C4800F021F90021012000F0FDF8012183
:1016B000084600F0F9F80320019000208DF808009A
:1016C0000C208DF8090001208DF80A0001A800F017
:1016D000A1F84FF4A06000F01FFB06208DF8000079
:1016E00001208DF801008DF802008DF80300684696
:1016F00000F0DAFA07208DF8000001208DF80100D3
:1017000002208DF8020001208DF80300684600F0E9
:10171000CBFA1FBD000C014010B5012000F066F8A7
:1017200001280DD10221074800F069F928B90648BF
:101730000088401E00B204490880012000F050F8E3
:1017400010BD0000000C01400E00002010B502206A
:1017500000F04CF801280DD10121074800F04FF9A5
:1017600028B906480088401C00B2044908800220BD
:1017700000F036F810BD0000000C01400E00002003
:1017800010B5102000F032F801280CD110210648C5
:1017900000F035F920B90020044908700449088098
:1017A000102000F01DF810BD000C014013000020B7
:1017B0000C00002010B5202000F018F801280AD1F4
:1017C0002021054800F01BF910B9032003490870D7
:1017D000202000F005F810BD000C01401200002090
:1017E00001490860704700001404014001460020D0
:1017F0000022074B1B6803EA0102054B14331B68E8
:101800000B4013B10AB1012000E000207047000036
:1018100000040140002123498279002A3AD00A4677
:10182000126803689A430B461A600A1D126803681F
:101830009A430B1D1A60027911440A6803681A431F
:101840000A60184A0832126803689A43154B083335
:101850001A601A1D126803689A43124B0C331A60FF
:101860004279102A0ED11A1F126803681A430D4BD1
:1018700008331A601A1D126803681A43094B0C33A7
:101880001A600DE00749427911440A6803681A4357
:101890000A6005E0027911440A6803689A430A6005
:1018A000704700000004014030B500228B071C0F78
:1018B0000F2303FA04F20B4B8C1053F8243093439C
:1018C000084C8D1044F8253023468C1053F82430F2
:1018D0008C07240F00FA04F42343024C8D1044F8C3
:1018E000253030BD080001402DE9F04102460025B9
:1018F0000026002000230024002791F803C00CF0EC
:101900000F0591F803C00CF0100CBCF1000F03D0D0
:1019100091F802C04CEA050591F800C0BCF1000F37
:1019200031D0146800202BE04FF0010C0CFA00F3CA
:10193000B1F800C00CEA03069E4220D183004FF0AC
:101940000F0C0CFA03F7BC4305FA03FC4CEA040441
:1019500091F803C0BCF1280F06D14FF0010C0CFA2E
:1019600000FCC2F814C00AE091F803C0BCF1480FB3
:1019700005D14FF0010C0CFA00FCC2F810C0401C5D
:101980000828D1D31460B1F800C0BCF1FF0F34DDDA
:10199000546800202EE000F1080C4FF0010808FA0E
:1019A0000CF3B1F800C00CEA03069E4221D183007B
:1019B0004FF00F0C0CFA03F7BC4305FA03FC4CEA9A
:1019C000040491F803C0BCF1280F05D100F1080C04
:1019D00008FA0CF8C2F8148091F803C0BCF1480F63
:1019E00007D100F1080C4FF0010808FA0CF8C2F812
:1019F0001080401C0828CED35460BDE8F081024618
:101A0000002093680B400BB1012000E000207047DC
:101A100002460020D3680B400BB1012000E00020FB
:101A2000704741617047016170470AB1016100E090
:101A30004161704710B500BF4FF0804000F0A0FC3E
:101A400004460748007800EB4001C1EBC01004EBEE
:101A5000C00400204FF080418884204610BD000063
:101A60000600002010B5044605230122214609483E
:101A7000FFF714FC01210748FFF771FC00BF0221AA
:101A80000448FFF7CFFB0028F9D00248FFF7C6FB58
:101A900010BD00000024014000B585B001210420E4
:101AA00000F05EFB0121082000F05AFB01210846EE
:101AB00000F046FB4FF48050ADF8100004208DF884
:101AC000130003208DF8120004A92948FFF70CFF2A
:101AD0004FF480512648FFF7A4FF0820ADF810000E
:101AE00010208DF8130003208DF8120004A921485E
:101AF000FFF7FAFE08211F48FFF793FF4FF08040E1
:101B000000F05BFC0020ADF80A00ADF806001320E1
:101B1000ADF8040041F61F40ADF8080000208DF834
:101B20000C0001A94FF0804000F0A8FC01218807BB
:101B300000F014FC01221146900700F035FC4FF430
:101B4000A06000F0E9F81C208DF8000002208DF85C
:101B5000010001208DF802008DF80300684600F0B6
:101B6000A3F800214FF0804000F0FEFB05B000BD5F
:101B700000080140000C014000BFFEE72DE9F047DE
:101B8000002500260027A846002400BF30E00821D9
:101B90001C48FFF748FF1420FFF74FFD08211948A4
:101BA000FFF73FFF00BF4FF480511748FFF727FFB3
:101BB0000028F8D000F052FA00BF4FF480511248CC
:101BC000FFF71DFF0128F8D0FFF752FCFFF732FFA7
:101BD000814601F035FF07460C49384601F036FED4
:101BE00005462946404601F0CFFD8046641C641C32
:101BF000052CCCDB0649404601F028FE064630465F
:101C0000BDE8F087000C0140000801400000684278
:101C10000000A04010B502210648FFF7F9FE20B9E8
:101C200002210448FFF7FFFE03E002210148FFF70D
:101C3000F8FE10BD0008014008B50121042000F0A5
:101C40008FFA10208DF803000E20ADF8000003205D
:101C50008DF8020069460448FFF746FE0E2102484F
:101C6000FFF7E1FE08BD00000008014008B50121B2
:101C7000102000F075FA10208DF803004002ADF836
:101C8000000003208DF8020069460448FFF72CFE8F
:101C90004FF400510148FFF7C6FE08BD0010014097
:101CA00000BFFEE77047000070B5002100230F223F
:101CB000C47804B3154C246804F4E064C4F5E0640B
:101CC000210AC1F10403CA40447804FA03F184787C
:101CD0001440214309010E4C0678A155047804F004
:101CE0001F050124AC4005786D11AD0005F1E0251C
:101CF000C5F8004109E0047804F01F050124AC4058
:101D0000044D0678761145F8264070BD0CED00E0D4
:101D100000E400E080E100E002490143024A116072
:101D2000704700000000FA050CED00E070B50024DB
:101D30000EE00021204600F0F0F8002504E000202D
:101D400000F07CF9681CC5B2802DF8DB601CC4B2C1
:101D5000082CEEDB70BD000008B50121082000F062
:101D6000FFF914208DF8030003208DF802004FF4D2
:101D70008070ADF8000069460A48FFF7B5FD4FF4E2
:101D80000070ADF8000069460648FFF7ADFD01227E
:101D900011020448FFF749FE012251020148FFF7F2
:101DA00044FE08BD000C014070B50546002415E056
:101DB0008020204100EA05024FF400710E48FFF731
:101DC00034FE012211020C48FFF72FFE00224FF4CF
:101DD00080710948FFF729FE601CC4B2082CE7DBBC
:101DE000012211020448FFF720FE00224FF4807107
:101DF0000148FFF71AFE70BD000C014010B501222A
:101E000051020A48FFF711FE012211020748FFF7AD
:101E10000CFE00224FF400710448FFF706FE00227A
:101E20004FF480710148FFF700FE10BD000C014027
:101E300010B500224FF400710648FFF7F6FD0122AD
:101E400011020448FFF7F1FD012251020148FFF79A
:101E5000ECFD10BD000C014070B5002406E000252B
:101E600000E06D1CB5F57A7FFBD3641CB4F57A7F76
:101E7000F5D3FFF771FFAE2000F0D0F8D52000F0C9
:101E8000CDF8802000F0CAF8A82000F0C7F83F2065
:101E900000F0C4F8D32000F0C1F8002000F0BEF834
:101EA000402000F0BBF8A12000F0B8F8C82000F0F6
:101EB000B5F8DA2000F0B2F8122000F0AFF8812077
:101EC00000F0ACF8CF2000F0A9F8D92000F0A6F877
:101ED000F12000F0A3F8DB2000F0A0F8302000F0A3
:101EE0009DF8A42000F09AF8A62000F097F88D2025
:101EF00000F094F8142000F091F8AF2000F08EF874
:101F0000FFF714FF70BD10B50246012000E05043FA
:101F10000B1EA1F10101FAD110BD70B505460C46AA
:101F200045F0B00000F07AF8102141EA141000F0FA
:101F300075F804F00F0000F071F870BD2DE9F04164
:101F400005460E461746721ED206110E6A1E52062E
:101F5000100EFFF7E2FF002409E0A7F12001134A69
:101F600002EB0111085D00F069F8601CC4B2082C96
:101F7000F3DB721ED206110E6A1E012303EB42022E
:101F8000D0B2FFF7CAFF00240BE0A7F12001074AF7
:101F900002EB011204F10801505C00F04FF8601CE4
:101FA000C4B2082CF1DBBDE8F0810000EE3C000873
:101FB0002DE9F04780460E4617461D46002415E0E1
:101FC000281B411E0A20FFF79EFFB7FBF0F00A21F5
:101FD000B0FBF1F201FB120000F130093019C1B27F
:101FE0004A464046FFF7AAFF601CC4B2AC42E7DB9A
:101FF000BDE8F0872DE9F04107460E46154600245E
:1020000007E02A5D3019C1B23846FFF797FF601C20
:10201000C4B2285D0028F4D1BDE8F08110B50446B3
:10202000FFF7ECFE7820FFF7BFFE0020FFF7BCFEB5
:102030002046FFF7B9FEFFF7FBFE10BD10B50446C2
:10204000FFF7DCFE7820FFF7AFFE4020FFF7ACFE85
:102050002046FFF7A9FEFFF7EBFE10BD10B50021EB
:102060004FF0804000F008FA002003490870012179
:10207000880700F079F910BD0600002000B589B08E
:102080000121022000F05CF80121042000F068F832
:1020900018208DF823004020ADF8200003208DF893
:1020A000220008A91848FFF71FFC184800F085F91E
:1020B0000020ADF81A00ADF8160044F61F60ADF828
:1020C00018004720ADF8140000208DF81C0005A969
:1020D0000E4800F0D3F901A800F0C2F96020ADF875
:1020E00004000020ADF80C000120ADF8060000202F
:1020F000ADF80A0001A9054800F066F9012103487E
:1021000000F032F909B000BD0008014000040040B1
:1021100010B504462146024800F0ACF910BD00009D
:10212000000400407047000001460020034A506848
:1021300020F4404008435060704700000010024007
:1021400029B1064AD2690243044BDA6104E0034A2A
:10215000D2698243014BDA617047000000100240EF
:1021600029B1064A92690243044B9A6104E0034A8A
:1021700092698243014B9A6170470000001002404F
:1021800070B50024012407E0204601F041FC05461B
:1021900000F00AF8641C641CB42CF5DD70BD10B5A9
:1021A000FFF76CFF10BD00002DE9F04104460A491D
:1021B000204601F04BFB8046084901F055FC0746DC
:1021C000074901F0E1FA064601F002FC85B2284613
:1021D000FFF79EFFBDE8F081000034430000FA44A1
:1021E0000000FA43704710B500F002F810BD00007F
:1021F0000CB50020019000903348006840F4803016
:102200003149086000BF3048006800F40030009099
:102210000198401C0190009818B90198B0F5A06F82
:10222000F1D12948006800F4003010B1012000907D
:1022300001E0002000900098012843D12348006865
:1022400040F01000214908600846006820F00300B3
:1022500008600846006840F0020008601A484068BC
:10226000194948600846406848600846406840F49C
:10227000806048600846406820F47C10486008464A
:10228000406840F4E81048600846006840F08070FC
:10229000086000BF0C48006800F000700028F9D00A
:1022A0000948406820F00300074948600846406834
:1022B00040F00200486000BF0348406800F00C0096
:1022C0000828F9D10CBD0000001002400020024097
:1022D0007047000010B51348006840F00100114934
:1022E000086008464068104908400E4948600846A2
:1022F00000680E4908400B4908600846006820F451
:10230000802008600846406820F4FE0048604FF4D2
:102310001F008860FFF767FF4FF000600449086006
:1023200010BD0000001002400000FFF8FFFFF6FEA5
:1023300008ED00E010B50121880700F024F801281D
:1023400008D105480078401C03490870012188071E
:1023500000F007F810BD000006000020CA4302820A
:102360007047CA430282704721B1028842F00102DD
:10237000028004E002884FF6FE731A400280704724
:102380000146888C704730B50246002000230024A7
:10239000158A05EA0103958905EA010413B10CB118
:1023A000012000E0002030BD1AB183890B438381F6
:1023B00002E083898B438381704701894FF6F8726D
:1023C000114001817047000070B5002400220023F5
:1023D000058C4FF6FE7635400584028C8388048B8D
:1023E0004FF68F752C40B51E2C400D882C43751E62
:1023F0002A400D892A434D882A43144DA8420BD008
:10240000134DA84208D0134DA84205D0124DA84242
:1024100002D0124DA84213D14FF6F7752A404D89CC
:102420002A434FF6FB752A408D882A434FF6FF65F5
:102430002B404FF6FF552B408D892B43CD892B43E5
:1024400083800483CD888586028470BD002C014082
:102450000034014000400140004401400048014078
:102460000021018041808180C18001814181818181
:10247000C18170478186704781847047002202883D
:102480001D4B98420ED01D4B98420BD0B0F1804F9F
:1024900008D01B4B984205D01A4B984202D01A4BD9
:1024A000984204D14FF68F731A404B881A43174B4A
:1024B000984207D0164B984204D04FF6FF431A407B
:1024C000CB881A4302808B8883850B8803850A4B4F
:1024D00098420BD0094B984208D00E4B984205D039
:1024E0000D4B984202D00D4B984201D10B7A0386D6
:1024F0000123838270470000002C0140003401401A
:102500000004004000080040000C004000100040A3
:1025100000140040004001400044014000480140D8
:1025200010B5FEF7D7FF4FF4FA70FFF77AF821A243
:1025300001210846FFF75EFD1F4882780223032130
:102540000120FFF735FD1DA205210120FFF752FDF7
:102550001BA208210120FFF74DFD17480278022336
:102560000A210120FFF724FD16A20C210120FFF70C
:1025700041FD16A201210220FFF73CFD18A2012116
:102580000320FFF737FD1BA201210420FFF732FDD6
:1025900009480078462803DDFFF7C8FB00F0D4FBAC
:1025A000054880781E2803DDFFF7C0FB00F012FC11
:1025B00010BD0000543A0000000000205E432000DF
:1025C000483A000025202020200000002D2D2D2D30
:1025D00045766572797468696E6720200000000096
:1025E0002D2D2D2D2D2D576F726B73202020202027
:1025F000000000002D2D2D2D2D2D2D2D46696E65F1
:10260000202020200000000000BFFEE7490050EA23
:10261000C12018BF04204A0D18BF40F0010040F24D
:10262000FF72B2EB515F08BF40F00200012808BF03
:102630000520704730380A2801D201207047002059
:10264000704710B5FEF70CFF3220FEF7EAFFFEF7E9
:10265000FFFE10BD10B5FFF707F8294909880844A7
:1026600000B2274908800846B0F90000002801DAC6
:10267000002008802248008808B900F059F8204856
:102680000088012801D1FFF74BFF1D480088022870
:1026900001D100F029FA1A480088032801D100F07E
:1026A0004BF917480088042801D100F0B9FA144802
:1026B000008805281AD113A201210846FFF79AFCC9
:1026C00015A201210220FFF795FC0EA20121032093
:1026D000FFF790FC0BA201210420FFF78BFC01E027
:1026E000FFF74EFD114800780028F9D10448B0F9F1
:1026F0000000062802DB00200149088010BD000010
:102700000C0000202020202020202020202020201D
:10271000202020200000000020537065656420699F
:1027200073206E6F726D616C00000000130000205A
:1027300010B50AA201210846FFF75CFC0CA201219A
:102740000220FFF757FC0FA201210320FFF752FCE4
:1027500011A201210420FFF74DFC10BD312E5420A1
:102760006F72204820202020202020200000000020
:10277000322E5261696E202020202020202020202F
:1027800000000000332E4C69676874202020202050
:102790002020202000000000342E53686F77206135
:1027A0006E642052756E20200000000010B5FFF707
:1027B0005DFAFFF741FAFEF733FEFFF74DFBFEF738
:1027C000DFFDFFF769F9FFF7EAFCFEF757FF00F0BE
:1027D00047F810BDFEB500241948007803282DD114
:1027E000FFF7A4FA00BF20E016A201210846FFF778
:1027F00001FCFFF7C3F907463220FEF712FF4FF046
:102800008041384601F022F80746384600F090FF34
:1028100005462A460B460FA16846FDF7E1FC6A46CD
:1028200003210220FFF7E6FB641C142CDCDD0024EE
:10283000C820FEF7F6FE002008490880FEBD000013
:1028400012000020536F6E69634465746563746998
:102850006F6E0000252E3366000000000C00002083
:102860001FB501210820FFF77BFC01210846FFF777
:1028700077FC04208DF80F001020ADF80C00032029
:102880008DF80E0003A92B48FFF72EF80421012034
:10289000FFF70AF804208DF80F002020ADF80C0097
:1028A00003208DF80E0003A92248FFF71DF805212B
:1028B0000120FEF7F9FF1020019000208DF808009C
:1028C0000C208DF8090001208DF80A0001A8FEF700
:1028D000A1FF2020019000208DF808000C208DF829
:1028E000090001208DF80A0001A8FEF793FF4FF4BC
:1028F000E060FFF711FA0A208DF8000001208DF842
:1029000001008DF802008DF803006846FFF7CCF94E
:102910004FF4A060FFF700FA17208DF800000120A7
:102920008DF801008DF802008DF803006846FFF76E
:10293000BBF91FBD000C01402DE9F04F89B0032009
:10294000FFF790F8364908806420FEF76AFE35A24A
:1029500001210846FFF74EFB37A201210220FFF7B5
:1029600049FB2F48008801F06BF8834600F0E0FE39
:102970004FF06632314BCDE9000100F0E5FC00225A
:102980002F4BCDE9020100F029FB00224FF08043DC
:10299000CDE9040100F0D8FC80460022294B00F06C
:1029A000D3FC06460022284B00F018FB0022254BE2
:1029B000CDE9060100F0C6FD044600F067FC824642
:1029C0000223524603211846FFF7F2FA1FA20521FF
:1029D0000220FFF70FFB21A201210320FFF70AFBD2
:1029E0001EA201210420FFF705FBBAF1280F08DA27
:1029F0001FA201210320FFF7FDFAFFF70BF9FFF7F4
:102A000020FEBAF1460F08DD1EA201210320FFF7C8
:102A1000F1FAFFF7FFF8FFF714FE09B0BDE8F08FF9
:102A20000A0000204C6967687420696E74656E73D3
:102A300069747920000000002020000066660A40CA
:102A40000000B04000C05840000014402520202065
:102A500020202020202020200000000020202020F6
:102A600020202020202020202020202000000000E6
:102A700049745E7320746F6F206461726B20202034
:102A80000000000049745E7320736F2062726967F2
:102A90006874202000000000FFF788FE00F0F8F8BE
:102AA00001E0FFF76DFB0E4800780028F9D1FFF731
:102AB0003DF914E001200A49087007E001200849A7
:102AC00008706420FEF7ADFDFFF7C4FD05480078EF
:102AD0000328F3D1FFF77EFE002002490870E9E7E2
:102AE00013000020120000202DE9F04F89B033A21E
:102AF00001210846FFF77EFA0720FEF7B3FF3449AD
:102B000008800846008800F09BFF834600F010FE16
:102B10004FF066322F4BCDE9000100F015FC00228A
:102B20002D4BCDE9020100F059FA00224FF080430D
:102B3000CDE9040100F008FC80460022274B00F09C
:102B400003FC06460022264B00F048FA0022234BE5
:102B5000CDE9060100F0F6FC044600F0C7FB1FFAC1
:102B600080FA20A201210220FFF744FA02235246F4
:102B700003211846FFF71CFA1BA205210220FFF7CC
:102B800039FA1DA201210320FFF734FA1AA201210C
:102B90000420FFF72FFABAF1460F08DB1BA2012130
:102BA0000320FFF727FAFFF735F8FFF74AFD642007
:102BB000FEF737FD09B0BDE8F08F0000466C6F7777
:102BC00020696E74656E73697479202000000000BE
:102BD0000800002066660A400000B04000C058406F
:102BE000000014402020000025202020202020204C
:102BF0002020202000000000202020202020202055
:102C0000202020202020202000000000202020570D
:102C100061746572204C61726765202000000000BD
:102C200010B50CA201210846FFF7E4F90EA201211C
:102C30000220FFF7DFF911A201210320FFF7DAF9E3
:102C400004A201210420FFF7D5F91420FEF7E9FCC6
:102C500010BD00002D2D2D2D2D2D2D2D2D2D2D2D8B
:102C60002D2D2D20000000007C20207375626D61E9
:102C700072696E6520207C20000000007C202049C5
:102C80006E20616374696F6E20207C20000000005C
:102C900010B51BA201210846FFF7ACF91CA20121C7
:102CA0000220FFF7A7F91EA201210320FFF7A2F9D6
:102CB0001FA201210420FFF79DF91FA20A21042071
:102CC000FFF798F900201E49088013E01420FEF752
:102CD000A8FC03231A48028806210420FFF768F99C
:102CE00018A209210420FFF785F915480088401C27
:102CF00013490880124800886428E7DD10BD0000F1
:102D00002D2D2D2D2D2D2D2D2D2D2D2D2D2D2D0020
:102D10007C2020202077656C636F6D6520207C000F
:102D20007C2020202073797374656D2020207C0026
:102D30002D2D202020000000202020202D2D2000DF
:102D4000100000202500000010B520E011A2012194
:102D50000846FFF74FF914A201210220FFF74AF9B4
:102D600016A201210320FFF745F90AA20121042040
:102D7000FFF740F9FEF74EFFFFF763FCFEF7AAFBF3
:102D800013480078462802DAFEF7D0FF00E0DDE7BE
:102D900000BF10BD2D2D2D2D2D2D2D2D2D2D2D2D8B
:102DA0002D2D2D20000000007C4820697320746FB9
:102DB0006F20686967687C20000000007C207475C3
:102DC000726E20697420646F776E7C2000000000B2
:102DD0000000002010B520E011A201210846FFF7F5
:102DE00009F914A201210220FFF704F916A201211A
:102DF0000320FFF7FFF80AA201210420FFF7FAF8E9
:102E0000FEF708FFFFF71DFCFEF764FB1348807810
:102E10001E2802DAFEF78AFF00E0DDE700BF10BDE2
:102E20002D2D2D2D2D2D2D2D2D2D2D2D2D2D2D20DF
:102E3000000000007C5420697320746F6F20686963
:102E400067687C20000000007C207475726E206929
:102E50007420646F776E7C2000000000000000206A
:102E600010B500290AD00878002807D00548784412
:102E7000FDF7B0FD002801D0002010BD02487844C5
:102E800010BD0000261500001E15000010B591EAC7
:102E9000030F48BF83F0004300F16883841A71EB8D
:102EA000030C05D2121943EB0C03001B61EB0C0160
:102EB000DFF824E14FEA1154A4EB135C1EEA430F40
:102EC00018BF9EEA445F73D023EA0E03DCF1200EA4
:102ED00021EA045143F4801332D322FA0CFE10EBA2
:102EE0000E0023FA0CFE41EB0E01CCF1200E03FA8A
:102EF0000EFE10EB0E0051F10001B1F5801FCCF178
:102F0000200E32D201EB045112FA0EF2BDE810404D
:102F100058BF7047401C38BF5FEA420218BF704775
:102F2000002814BF20F0010041F100014FEA4103E5
:102F300013F5001F38BF7047A1F1C04100F0FCBA83
:102F4000012A43EB0302ACF1200CDCF11F0E32BF6F
:102F50004FF0000E23FA0CF310EB030041EB045189
:102F6000B4EB115FD0D0A1EB045101F580114908F9
:102F70005FEA300001EB04510ED350F1000038BF7E
:102F800012FA0EFE08D1BDE81040C9E7401C38BF58
:102F90005FEA4202CAD1C3E7BDE810404FEA4103ED
:102FA00013F5001F38BF7047A1F1C04100F0C4BA4B
:102FB0009EEA445F08D011EA5E0FBDE8104004BFEE
:102FC00001F0004100207047BDE8104070B500F0EE
:102FD00065FA00BF64FBBE3E0000E0FF2DE9C04182
:102FE00030B4DFF8A0C23CEA111418BF3CEA131455
:102FF00000F0EC8081EA03051CEA111444EAD57460
:1030000018BF1CEA131500F0C780A4EB05044FF0AD
:10301000004545EAC12145EAC32341EA505143EA4C
:10302000525304F17F74994204F500344FEAC020F2
:103030004FEAC22208BF904200F09C804FEA13651D
:103040000FF24016765D4FEA134506FB05F7C7F110
:10305000807706FB07F74FEAD737A7FB036876426E
:10306000C8F58038A7FB06CE38BFA8F1010807FBDA
:1030700008E64FF0000EA6FB028CE6FB03CEDCF167
:10308000000CCEF1004E38BFAEF1010EA6FB0C587D
:103090004FF000074FF00005E6FB0E87A1FB08C6C6
:1030A000A0FB07CE16EB0E0645F10005E1FB076518
:1030B00015F1E04E7EBFA4F580345FEA46066D410F
:1030C00016F1800745F100054FEA17274FEA06661B
:1030D00047EA0567A6F1DE46B6F1805F4FEA15259F
:1030E0001FD9384624F0010C05EBC471BCF1FE6F0A
:1030F00001EB0C1102D8F0BCBDE8008124425CBF9A
:1031000001F5801E9EEAC47F02D4F0BCBDE80081B8
:10311000244238D4F0BCA1F1C041BDE8004100F028
:103120000BBA4FEAD22242EA43524FEAD323A7FB1B
:1031300002864FEAD02040EA415007FB03661EEAB0
:103140000E0F4FEAD12105FB026658BFA6EB0056D1
:10315000B6EB00564FEA520E4EEAC37E18EB0E0E47
:1031600056EB530EBDD518EB02085E417F1C55F19E
:103170000005B6E74FF480154FF000074FF000064A
:103180004FF00008ADE7F0BC4FF0000001F1C04186
:1031900001F00041BDE8008111EA0C1F0CEA131593
:1031A00000D00CE013EA0C1F00F025804FF0000067
:1031B000F0BC81EA030101F00041BDE80081F0BCF0
:1031C000BDE8004181EA030100F0B6B9F0BCBDE8FA
:1031D000004170B500F062F9097EFC3E00F007B8CE
:1031E00081EA03014FF0000001F00041704781EADD
:1031F000030100F0A1B9F0BCBDE800414FF00000B0
:1032000021497047FFFDFBF9F7F5F4F2F0EEEDEB25
:10321000E9E8E6E4E3E1E0DEDDDBDAD8D7D5D4D3D4
:10322000D1D0CFCDCCCBCAC8C7C6C5C4C2C1C0BF20
:10323000BEBDBCBBBAB9B8B7B6B5B4B3B2B1B0AF26
:10324000AEADACABAAA9A8A8A7A6A5A4A3A3A2A10A
:10325000A09F9F9E9D9C9C9B9A99999897979695C5
:1032600095949393929191908F8F8E8E8D8C8C8B61
:103270008B8A8989888887878685858484838382E9
:10328000828181800000FF070000F87F4FEA410340
:103290004FEA5353A3F58063D3F11E03C8BFD3F1A4
:1032A000210C0CDD4FF0004242EAC12242EA5052AA
:1032B00032FA03FC8CEAE17CACEBE1707047102B36
:1032C000C4BF0020704703F5787CBCF1FF3F04D0F9
:1032D0006FF0004282EA2100704770B500F0DEF81E
:1032E0004992248000207047F2E700004FEA115312
:1032F000A3F58063D3F11E03A8BFD3F1200C08DB34
:103300004FF0004242EAC12252EA505232FA03F030
:10331000704709420BD4102BC4BF0020704703F53F
:10332000787CBCF1FF3F05D04FF0FF3070474FF085
:103330000000704770B500F0B1F800BF49922480DA
:1033400000207047F0E70000DFF848C170B51CEAC4
:10335000111E1EBF1CEA13159EEA0C0F95EA0C0FF6
:1033600000F06F8081EA030423EA4C134EEAD47E16
:1033700021EA4C1141F4801143F48013AE44A1FBC7
:10338000024CA0FB0365AEF17F7E361955EB0C05B0
:10339000A1FB034C4CF10003A0FB021C16EB0C0636
:1033A000654153F10003094218BF46F0010613F4CA
:1033B000007F0BD14FEA03314FEA0530340341EA75
:1033C000155140EA16506FF003020AE04FEAC3219C
:1033D0004FEAC520F40241EA555140EA56506FF0D9
:1033E000020202EB2E4201EB025585EACE710AD0B1
:1033F0005FEA440C18BF24F0004450F1000041F192
:10340000000120EAD47040F2FE7C624500D270BD1B
:10341000A84214BF4FF080444FF04044002E08BF34
:103420000024BEF1806FA8BFA1F1C041BDE870408B
:1034300080F282804FF0000001F1C04101F00041B4
:1034400070479EEA0C0F0CEA131518BF95EA0C0F93
:1034500006D04FF0000081EA030E0EF0004170BD6F
:1034600000F01CF88900013E00F007B800F009B830
:103470004FEA430C5FEA5C5C08D081EA030100F08C
:103480005BB84FEA410C5FEA5C5CF6D14FF000009C
:10349000014970470000FF070000F87F0EF1020E9F
:1034A0002EF0030E5EF8046B364205D4012A43EB7E
:1034B000030515F5001F12D8012841EB010C1CF57E
:1034C000001F0CD80ED14FEAD17C15F5001F0CEB74
:1034D0004C0C0CF1020C08BF4CEBD37C04E04FF019
:1034E000080C01E04FEAD37C0CEB4C0526FA05F6FC
:1034F00006F00706B6F1040C06D20EEB860CBDE80A
:1035000070404CF0010C6047DFE80CF0090B020240
:103510004FF000414FF00000A1F5002170BD1946A9
:103520001046012851EB010418BFD4F5001484BFE4
:10353000002001F0004170BD0808A0F500114FEA1D
:103540003101704791EA030F10B581F000413FF55A
:10355000A5AC83F0004300F009B8000010B591EA73
:10356000030F48BF83F000433FF598AC841A71EB1A
:10357000030C07D212198CF0004C43EB0C03001B18
:1035800061EB0C01DFF8A4E14FEA1154A4EB135CEA
:103590001EEA430F18BF9EEA445F00F0B08023EAA2
:1035A0006E03524221EA0451C3EB6E0338BF5B1E27
:1035B000DCF1200E25D322FA0CFE10EB0E0043FAAC
:1035C0000CFE41EB0E01CCF1200E03FA0EFE10EBC7
:1035D0000E0051F10001CCF1200E29D412FA0EF2A6
:1035E00001EB0451BDE8104058BF7047401C1CBFA0
:1035F000B2F1004F704700280CBF491C20F00100B9
:10360000704712EB020E43EB030218BF4FF0010E9E
:103610004EEA4202ACF1200CDCF11E0E54D943FA02
:103620000CFE10EB0E0051F1FF31CCF11E0ED5D582
:103630000EF1010E12FA0EFE404141EB010101EBC9
:10364000445C5FEA5C5C10D910EBDE7001EB045166
:1036500038BFBEF1004FBDE8104018BF70470028CA
:103660000CBF491C20F00100704730D24FEAD42C27
:1036700011F5001124F400641BD0B1FA81F20B3A69
:10368000A41AA41ED2F12003914030FA03F3194387
:10369000904001EBCC71002C01EB0451BDE81040CF
:1036A000A8BF704701F1C0414FF0000001F0004198
:1036B0007047B0FA80F310FA03F100D110BDE41A9C
:1036C000173C4805C90AE4E701EB045110BD491055
:1036D00001EB0451BDE810404FEA300002E04FF02A
:1036E000000170474A0008BF0042F8D0B2F5001F41
:1036F00028BF704701F000414FF0000070479EEA7C
:10370000445F07D011EA5E0FBDE8104004BF0021FE
:1037100000207047BDE8104070B5FFF7BFFE00BF46
:1037200040DFF63E83F00041104670470000E0FFA6
:1037300043004FEAD30C4FEA3C0C43401FBF400705
:103740000CF1605113F0FE4F70471CF0006F03D175
:1037500000200CF0004170470CF0004343EA507029
:1037600010B540EACC0000F000FA00BF0000009263
:103770004FEA0001FFF7E0BE4FF000414FF00000BC
:10378000A1F500217047000090EA010F48BF81F0C9
:10379000004100F13C82421A3CBF801A89184FEA6E
:1037A000D0524FF07F4C1CEA410FA2EBD15318BF0F
:1037B0009CEA026F00F03B804FF0004C4CEA002086
:1037C0004CEA012121FA03FC10EB0C0C1ED202F191
:1037D000FF325FEA1C2040EBC25038BF70471CF03C
:1037E0007F0F4FEA400C18BFBCF17F4F38BF7047C6
:1037F000C3F12003994008BF20F00100BCF17F4FC6
:1038000038BF7047A0F1C04000F0F5B94FEA3C0066
:10381000000A40EBC25028BF1CF0FF0F4FEA400CDB
:10382000E6D018BFBCF17F4F38BF7047EAE79CEA8B
:10383000026F05D010EA5C0F08BF00F0004070472F
:1038400010B500F092F900BF64FBBE3E4FF47F0C50
:103850001CEAD0121EBF1CEAD11392EA0C0F93EAA5
:103860000C0F00F0858090EA010F48BF42F480728F
:1038700040F4000C41F400002CF07F4120F07F4028
:1038800000B58142A2EB03020FF2081CACEB504ED4
:10389000C0F100009EF800E04FEA4E0E00FB0EFC67
:1038A00038BF49004FEA2C1C02F5FA020CFB0EF35C
:1038B0004FEACE1E4FEA112C4FEAC1210EEB635E98
:1038C00042EB22420EFB0CFC4FEA1C5300FB03119F
:1038D0004FEA112C4FEA01310EFB0CFC4FEADC4C95
:1038E00000FB0C11C14228BF09184CEB03335DF8F3
:1038F00004EB10EB410143EBC250B2F57C0F38BF33
:10390000704729D512F0F00F1CBF00F1C04000F045
:1039100000407047008182838485868788898B8CEC
:103920008D8E8F919293959697999A9C9D9FA0A228
:10393000A3A5A7A8AAACAEB0B2B3B5B7B9BCBEC078
:10394000C2C5C7C9CCCED1D4D7D9DCDFE2E6E9EC19
:10395000F0F3F7FAFE0000004FEA400C0CF1807C17
:10396000BCF17E4F28BF7047B0F1C04000F043B9B2
:1039700090EA010F0CEAD11348BF42F4807262450D
:1039800038BF634507D213F47F0F16D080EA0100D9
:1039900000F00040704710B500F0E7F8097EFC3EEB
:1039A00000F005B880EA010000F00040704780EAAE
:1039B000010000F0004000F01EB912F47F0F04BFB8
:1039C0000248704780EA010000F015B90000C07F8E
:1039D000C10DD1F19E0206DB4FEA002343F0004304
:1039E00023FA02F07047004207D54FEA4001B1F1D7
:1039F000FE4F02D24FF00000704710B500F0B5F84E
:103A000049922480002070476FEA20007047000030
:103A100010F0004148BF4042B0FA80F310FA03F2C0
:103A2000C3F19D030BD051EAC35101EB12205306A1
:103A300038BF704700F1010008BF20F00100704757
:103A4000B0FA80F310FA03F2C3F19D030AD0D9054E
:103A500001EB1220530638BF704700F1010008BF88
:103A600020F00100704700004FF47F0C1CEAD012D8
:103A70001EBF1CEAD11392EA0C0F93EA0C0F00F060
:103A8000478090EA010F48BF42F480724FF0004C2B
:103A90004CEA00204CEA012102EB0302A0FB0113D7
:103AA000A2F50002002918BF43F001035B0028BF04
:103AB0004FEA330342EB22425FEA132C4CEBC25035
:103AC0002EBFBCEB436FB2F57C0F70474FEA036C1F
:103AD000BCF1004F08BF20F00100B2F57C0F38BFE9
:103AE00070470BD582F0FF0212F5803FC8BF7047C8
:103AF00000F1C040D8BF00F00040704700F5000C56
:103B00005FEA4C0C48BF7047B0F1C04000F073B89A
:103B100090EA010F0CEAD11348BF42F4807262456B
:103B200038BF634504D280EA010000F000407047CE
:103B300010B500F01AF800BF8900013E00F007B888
:103B400000F009B85FEA410C5FEA1C6C08D080EA1B
:103B5000010000F050B85FEA400C5FEA1C6CF6D13F
:103B60004FF00040A0F5800070470EF1020E2EF0DD
:103B7000030E5EF8044B244204D44FEA4102B2F132
:103B80007F4F11D84FEA4003B3F17F4F0CD80ED1CD
:103B90004FEAD07CB2F17F4F0CEB4C0C0CF1020CD5
:103BA00008BF4CEBD17C04E04FF0080C01E04FEA79
:103BB000D17C0CEB4C0324FA03F404F00704B4F1B9
:103BC000040C06D20EEB840CBDE810404CF0010C46
:103BD0006047DFE80CF0070802024FF00040A0F554
:103BE000800010BD0846420018BFD2F1807288BF25
:103BF00000F0004010BDFF2141EAD050C0057047E1
:103C000090EA010F48BF81F000413FF5C4AD421A70
:103C100004D882F00042A0EB020011444FEAD052D7
:103C20004FF07F4C1CEA410FA2EBD15318BF9CEA26
:103C3000026F4AD04FF0004C4CEA00204CEA0121C0
:103C400021FA03FCB0EB0C0C0FD412F0FE0F36D0AF
:103C50005FEA4C001DD5001240EBC25038BF7047E0
:103C60001CF03F0F18BF70470BE0A2F101025FEAA2
:103C70001C2040EBC25038BF70471CF07F0F18BFAC
:103C80007047C3F12003994014BF401E20F001008B
:103C9000704780084FEA122308BF7047B0FA80FCD3
:103CA000A2EB0C02CCF1280C60FA0CF093EA122F74
:103CB00004BF00EBC25070474FEAC3707047130A4D
:103CC0005FEADC1008BF7047F6E79CEA026F04D099
:103CD00010EA5C0F08BF0020704710B5FFF745FFE2
:103CE00040DFF63E81F000407047FCF7F0BB00007B
:103CF00000000000000000000000000000000000C4
:103D000000F8000000000000003330000000001048
:103D10000C06100C0600000000000000000040C06F
:103D20007840C0784000043F04043F040400007061
:103D300088FC08300000001820FF211E0000F00859
:103D4000F000E018000000211C031E211E0000F0FE
:103D50000888700000001E21232419272110101646
:103D60000E00000000000000000000000000000045
:103D700000E01804020000000007182040000002C4
:103D80000418E00000000040201807000000404038
:103D900080F0804040000202010F0102020000009A
:103DA00000F0000000000101011F010101000000FE
:103DB00000000000000080B0700000000000000063
:103DC00000000000000000010101010101010000EC
:103DD0000000000000000030300000000000000083
:103DE000000080601804006018060100000000E078
:103DF00010080810E000000F102020100F00001025
:103E000010F8000000000020203F2020000000707B
:103E10000808088870000030282422213000003073
:103E20000888884830000018202020110E0000006B
:103E3000C02010F8000000070424243F240000F8EC
:103E40000888880808000019212020110E0000E0D1
:103E5000108888180000000F112020110E00003873
:103E60000808C83808000000003F0000000000708B
:103E7000880808887000001C222121221C0000E014
:103E800010080810E0000000312222110F0000008D
:103E900000C0C00000000000003030000000000042
:103EA00000800000000000008060000000000000B2
:103EB000804020100800000102040810200040404B
:103EC000404040404000040404040404040000088E
:103ED0001020408000000020100804020100007043
:103EE00048080808F0000000003036010000C0302B
:103EF000C828E810E0000718272423140B0000004E
:103F0000C038E0000000203C23020227382008F8D7
:103F1000888888700000203F202020110E00C030CB
:103F2000080808083800071820202010080008F8A2
:103F300008080810E000203F202020100F0008F89B
:103F40008888E8081000203F20202320180008F867
:103F50008888E8081000203F200003000000C030DF
:103F600008080838000007182020221E020008F860
:103F700008000008F808203F210101213F20000827
:103F800008F8080800000020203F20200000000062
:103F90000808F8080800C08080807F00000008F84A
:103FA00088C028180800203F20012638200008F883
:103FB000080000000000203F20202020300008F8EA
:103FC000F800F8F80800203F003F003F200008F804
:103FD00030C00008F808203F200007183F00E0101C
:103FE00008080810E0000F10202020100F0008F82B
:103FF00008080808F000203F210101010000E0103E
:1040000008080810E0000F18242438504F0008F862
:10401000888888887000203F2000030C30200070C2
:104020008808080838000038202121221C001808C0
:1040300008F8080818000000203F2000000008F8D9
:1040400008000008F808001F202020201F00087822
:10405000880000C83808000007380E010000F80882
:1040600000F80008F800033C0700073C03000818AC
:1040700068808068180820302C03032C3020083812
:10408000C800C83808000000203F200000001008C9
:104090000808C83808002038262120201800000011
:1040A00000FE020202000000007F40404000000CC1
:1040B00030C000000000000000010638C00000020F
:1040C0000202FE000000004040407F0000000000AF
:1040D00004020202040000000000000000000000D2
:1040E00000000000000080808080808080800002CE
:1040F00002040000000000000000000000000000BA
:104100008080808000000019242222223F2008F8AD
:10411000008080000000003F112020110E000000F0
:10412000008080800000000E11202020110000007F
:1041300000808088F800000E112020103F20000031
:10414000808080800000001F222222221300008035
:1041500080F0888888180020203F20200000000080
:10416000808080808000006B94949493600008F8B5
:10417000008080800000203F210000203F20008040
:104180009898000000000020203F20200000000040
:1041900000809898000000C08080807F000008F8B0
:1041A000000080808000203F24022D302000000885
:1041B00008F8000000000020203F20200000808040
:1041C000808080808000203F20003F20003F808052
:1041D000008080800000203F210000203F20000060
:1041E000808080800000001F202020201F00808011
:1041F00000808000000080FFA12020110E00000040
:10420000008080808000000E112020A0FF80808030
:1042100080008080800020203F21200001000000DD
:1042200080808080800000332424242419000080B2
:1042300080E0808000000000001F202000008080BF
:10424000000000808000001F202020103F20808080
:1042500080000080808000010E3008060100808010
:104260000080008080800F300C030C300F00008035
:104270008000808080000020312E0E312000808060
:1042800080000080808080818E7018060100008090
:104290008080808080000021302C222130000000AE
:1042A0000000807C020200000000003F404000004F
:1042B0000000FF00000000000000FF0000000002FE
:1042C000027C800000000040403F0000000000062B
:1042D00001010202040400000000000000000000D0
:1042E00002400000000000A00000000005400000A7
:1042F000000000C8000000000C4000000000409CCE
:1043000000000000194000000020BCBE00000000BA
:1043100034400000BFC91B8E00000004B5400000FF
:10432000504BCFD06607E2CF010000006C41000087
:104330003E8251AADFEEA73401000000D9420000FE
:10434000DCB5A0E23A301F97FFFFFFFFB445000045
:10435000FD25A0C8E9A3C14FFFFFFFFFFF3F0000FD
:104360000000008000000000FF3F0000000000800F
:1043700000000000B043000800000020140000000E
:1043800028010008C443000814000020640600004F
:10439000440100081C00000043000000F8FFFFFF7C
:1043A0000C0000000E0000000F0000002E000000B6
:1043B00000000000000000000000000000000000FD
:0443C00000000001F8
:04000005080000ED02
:00000001FF
