:020000040800F2
:1000000068060020890100088F04000887040008A2
:100010008B040008430200088D0A0008000000005D
:10002000000000000000000000000000B907000808
:10003000470200080000000075070008A508000836
:10004000A3010008A3010008A3010008A301000800
:10005000A3010008A301000891020008ED020008B6
:10006000A3010008A3010008A3010008A3010008E0
:10007000A3010008A3010008A3010008A3010008D0
:10008000A3010008A3010008A3010008A3010008C0
:10009000A3010008A3010008A3010008A3010008B0
:1000A000A3010008A3010008A3010008A3010008A0
:1000B000A3010008A301000800000000A30100083C
:1000C000A30100080000000000000000A3010008D8
:1000D00000000000A3010008A301000800000000C8
:1000E000C5020008A3010008A301000800F002F8FF
:1000F00000F03AF80AA090E8000C82448344AAF188
:100100000107DA4501D100F02FF8AFF2090EBAE885
:100110000F0013F0010F18BFFB1A43F0010318473B
:10012000D0090000F0090000103A24BF78C878C157
:10013000FAD8520724BF30C830C144BF04680C60ED
:10014000704700000023002400250026103A28BF35
:1001500078C1FBD8520728BF30C148BF0B60704739
:100160001FB51FBD10B510BD00F031F81146FFF7E7
:10017000F7FF00F08DFC00F04FF803B4FFF7F2FF3B
:1001800003BC00F057F800000948804709480047C1
:10019000FEE7FEE7FEE7FEE7FEE7FEE7FEE7FEE737
:1001A000FEE7FEE704480549054A064B7047000094
:1001B000A9080008ED00000868000020680600207B
:1001C000680200206802002070477047704775463B
:1001D00000F02CF8AE4605006946534620F00700B3
:1001E000854618B020B5FFF7DDFFBDE820404FF091
:1001F00000064FF000074FF000084FF0000B21F011
:100200000701AC46ACE8C009ACE8C009ACE8C009DD
:10021000ACE8C0098D46704710B50446AFF30080C6
:100220002046BDE81040FFF7A8BF00000048704717
:100230000800002001491820ABBEFEE7260002009E
:10024000704700BFFEE7704700B5034603E04FF478
:100250007A7000F005F8181EA3F10103F7D100BD74
:1002600000EBC001C9004FF0E02251610021916113
:100270000521116100BF4FF0E021096901F48031CF
:100280000029F8D004214FF0E022116170470000EE
:1002900010B5012000F04AF801280DD102210748CD
:1002A00000F0E3F828B906480088401E00B204496F
:1002B0000880012000F034F810BD0000000C01405F
:1002C0000200002010B54FF4806000F02FF80128E4
:1002D00008D105480088401C034908804FF480601D
:1002E00000F01EF810BD00000000002010B5022034
:1002F00000F01CF801280DD10121074800F0B5F8E5
:1003000028B906480088401C00B204490880022031
:1003100000F006F810BD0000000C014002000020B3
:1003200001490860704700001404014001460020A4
:100330000022074B1B6803EA0102054B14331B68BC
:100340000B4013B10AB1012000E00020704700000B
:10035000000401402DE9F04102460025002600205E
:1003600000230024002791F803C00CF00F0591F83A
:1003700003C00CF0100CBCF1000F03D091F802C0C8
:100380004CEA050591F800C0BCF1000F31D01468AB
:1003900000202BE04FF0010C0CFA00F3B1F800C084
:1003A0000CEA03069E4220D183004FF00F0C0CFA9A
:1003B00003F7BC4305FA03FC4CEA040491F803C0BC
:1003C000BCF1280F06D14FF0010C0CFA00FCC2F86A
:1003D00014C00AE091F803C0BCF1480F05D14FF0FA
:1003E000010C0CFA00FCC2F810C0401C0828D1D344
:1003F0001460B1F800C0BCF1FF0F34DD5468002078
:100400002EE000F1080C4FF0010808FA0CF3B1F8E7
:1004100000C00CEA03069E4221D183004FF00F0C6E
:100420000CFA03F7BC4305FA03FC4CEA040491F808
:1004300003C0BCF1280F05D100F1080C08FA0CF834
:10044000C2F8148091F803C0BCF1480F07D100F145
:10045000080C4FF0010808FA0CF8C2F81080401C94
:100460000828CED35460BDE8F0810246002093688E
:100470000B400BB1012000E0002070470AB1016180
:1004800000E04161704700BFFEE700BFFEE7704734
:1004900070B500240EE00021204600F0E6F80025AB
:1004A00004E0002000F002F9681CC5B2802DF8DBE2
:1004B000601CC4B2082CEEDB70BD000008B5012141
:1004C000082000F069F914208DF8030003208DF84E
:1004D00002004FF48070ADF8000069460A48FFF74B
:1004E00039FF4FF40070ADF8000069460648FFF789
:1004F00031FF012211020448FFF7C0FF012251021F
:100500000148FFF7BBFF08BD000C014070B5054670
:10051000002415E08020204100EA05024FF400711C
:100520000E48FFF7ABFF012211020C48FFF7A6FFB0
:1005300000224FF480710948FFF7A0FF601CC4B28D
:10054000082CE7DB012211020448FFF797FF002285
:100550004FF480710148FFF791FF70BD000C01401E
:1005600010B5012251020A48FFF788FF012211024B
:100570000748FFF783FF00224FF400710448FFF79C
:100580007DFF00224FF480710148FFF777FF10BD17
:10059000000C014010B500224FF400710648FFF72F
:1005A0006DFF012211020448FFF768FF012251028A
:1005B0000148FFF763FF10BD000C014070B5002437
:1005C00006E0002500E06D1CB5F57A7FFBD3641CC6
:1005D000B4F57A7FF5D3FFF771FFAE2000F056F83F
:1005E000D52000F053F8802000F050F8A82000F04B
:1005F0004DF83F2000F04AF8D32000F047F80020E3
:1006000000F044F8402000F041F8A12000F03EF84E
:10061000C82000F03BF8DA2000F038F8122000F093
:1006200035F8812000F032F8CF2000F02FF8D920E3
:1006300000F02CF8F12000F029F8DB2000F026F87B
:10064000302000F023F8A42000F020F8A62000F0CD
:100650001DF88D2000F01AF8142000F017F8AF20D4
:1006600000F014F8FFF714FF70BD70B505460C4696
:1006700045F0B00000F00AF8102141EA141000F033
:1006800005F804F00F0000F001F870BD10B5044645
:10069000FFF766FF7820FFF739FF0020FFF736FFEE
:1006A0002046FFF733FFFFF775FF10BD10B5044676
:1006B000FFF756FF7820FFF729FF4020FFF726FFBE
:1006C0002046FFF723FFFFF765FF10BD00B589B097
:1006D0000121084600F050F80121042000F05CF8E8
:1006E00018208DF823000220ADF8200003208DF89B
:1006F000220008A91A48FFF72DFE4FF0804000F0B5
:100700000FF90020ADF81A00ADF816006320ADF81F
:10071000180040F2CF20ADF8140000208DF81C0026
:1007200005A94FF0804000F05FF901A800F050F9F2
:100730006020ADF804000020ADF80C000120ADF8F9
:1007400006000020ADF80A0001A94FF0804000F03B
:10075000EDF80121880700F0D7F809B000BD0000CE
:100760000008014010B5044621464FF0804000F0DB
:1007700039F910BD7047000029B1064AD269024319
:10078000044BDA6104E0034AD2698243014BDA6127
:10079000704700000010024029B1064A92690243E6
:1007A000044B9A6104E0034A92698243014B9A61C7
:1007B0007047000000100240704710B500F002F8CA
:1007C00010BD00000CB50020019000903348006877
:1007D00040F480303149086000BF3048006800F4C0
:1007E000003000900198401C0190009818B90198C1
:1007F000B0F5A06FF1D12948006800F4003010B1C5
:100800000120009001E0002000900098012843D1D1
:100810002348006840F0100021490860084600683D
:1008200020F0030008600846006840F002000860FD
:100830001A484068194948600846406848600846B8
:10084000406840F4806048600846406820F47C10AE
:1008500048600846406840F4E81048600846006870
:1008600040F08070086000BF0C48006800F0007025
:100870000028F9D00948406820F003000749486083
:100880000846406840F00200486000BF03484068E6
:1008900000F00C000828F9D10CBD00000010024047
:1008A000002002407047000010B51348006840F077
:1008B00001001149086008464068104908400E4987
:1008C0004860084600680E4908400B490860084621
:1008D000006820F4802008600846406820F4FE008C
:1008E00048604FF41F008860FFF767FF4FF000601B
:1008F0000449086010BD0000001002400000FFF82D
:10090000FFFFF6FE08ED00E021B1028842F001028F
:10091000028004E002884FF6FE731A40028070479E
:1009200001894FF6F87211400181704770B50024BB
:1009300000220023058C4FF6EF7635400584028CAB
:100940008388048B48F6FF752C404FF6FF452C40FA
:100950000D884FF6FF7606EA05252C434FF6DF7526
:100960002A400D8906EA05152A434D8806EA051531
:100970002A43154DA84202D0144DA8421DD14FF66E
:100980007F752A404D894FF6FF7606EA05152A4302
:100990004FF6BF752A408D8806EA05152A434FF6A3
:1009A000FF352B404FF2FF752B408D8906EA8505F8
:1009B0002B43CD8906EA85052B4383800483CD88AC
:1009C0000587028470BD0000002C01400034014006
:1009D0000021018041808180C1800181418181812C
:1009E000C181704701877047002202881D4B9842E1
:1009F0000ED01D4B98420BD0B0F1804F08D01B4B4E
:100A0000984205D01A4B984202D01A4B984204D112
:100A10004FF68F731A404B881A43174B984207D0F2
:100A2000164B984204D04FF6FF431A40CB881A4326
:100A300002808B8883850B8803850A4B98420BD0F4
:100A4000094B984208D00E4B984205D00D4B984266
:100A500002D00D4B984201D10B7A03860123838289
:100A600070470000002C01400034014000040040A9
:100A700000080040000C004000100040001400403E
:100A800000400140004401400048014000BFFEE733
:100A9000FFF794FDFFF71AFE27E0002013490870C6
:100AA0000BE012480078FFF75DFE0A20FFF7CCFB51
:100AB0000E480078401C0D4908700C4800786428E6
:100AC000EFDD6420094908700BE008480078FFF763
:100AD00049FE0A20FFF7B8FB04480078401E03498E
:100AE0000870024800780028EFDDD6E704000020F7
:100AF000100B00080000002008000000280100087A
:100B0000180B0008080000206006000044010008DF
:080B10000000000000000000DD
:04000005080000ED02
:00000001FF
